:020000040000FA
:02000000C62810
:08000800AD28820048344534A4
:10001000413452345434203442344534413454341D
:10002000203443344F3455344E3454347C346534A6
:10003000723472346F347234203469346E34203444
:10004000733465347234693461346C345F34203411
:1000500020347434723461346E3473346D346934E2
:100060007434743469346E3467347C34203420340E
:1000700050346C34653461347334653420347734EF
:100080006134693474345F34203420346634653428
:10009000773420347334653463346F346E346434AD
:1000A00073347C34483465346134723474342034AD
:1000B000623465346134743420347234613474349D
:1000C00065343A345F3420342034253464342E349B
:1000D000253466342034623470346D347C346534B5
:1000E000723472346F34723420346434653474344E
:1000F00065346334743469346E3467345F3468341F
:10010000653461347234743420346234653461345B
:1001100074342034703475346C34733465347C3406
:100120002034203463346F346E346E346534633479
:10013000743465346434203474346F345F34203460
:100140002034733465347234693461346C3420344F
:1001500070346F34723474347C34831203130B1193
:10016000831203138B12831203131E0883120313CB
:10017000A700831603131E0883120313A80083121B
:1001800003131F15A30F0900A20A09008316031306
:100190008514860188018312031386018801831662
:1001A000031307138717831203138B018B1783160F
:1001B0000313C8308100831603130E309F0083128F
:1001C000031341309F00912230307E2230307E2256
:1001D00030307E2238307E220C307E2206307E2265
:1001E00001307E2283120313981783160313981687
:1001F0001815831603131930990006304422033072
:10020000B300C0307E221030B500FF307322B50B32
:100210000529C0307E221930B50020307322B50B7D
:100220000D29B30B012901307E228622A201A301F0
:10023000C901FF30C800A322270849020318222958
:100240002708C90048082702031828292708C800DA
:10025000A21F1B2948084902AA00103C03181729AD
:100260000310AA0C0310AA0C2A084902AA006B2941
:10027000B301B401B317341783160313981C47292D
:10028000FF309900B40B4729903044224D29B30B1D
:100290003C298316031398126B29B301B3178316F5
:1002A000031398185929B30B4F291730442286227B
:1002B0003829A7089900B301B317831603139818B8
:1002C0006729B30B5D291730442286223829A808F4
:1002D0009900A3224D29A61536304422A201A3017C
:1002E000A9142A082702031C81292208043C0318A8
:1002F00085292308A5002208A400A301A201A322A6
:100300008E29221B8529A3227129A301A201A322E0
:10031000A90B71296F304422862215290330C600AB
:100320009330C5008730C400B201B101BE013E1652
:100330000310B20DB10DC40DC50DC60D2408460243
:10034000031CAF29031DA82925084502031CAF295A
:100350002508C502031CC6032408C6023214A322C2
:10036000BE0B98293208B0070318310AAF07AF0C4B
:10037000B00C3008AE0703182F0AAD07AD0CAE0C59
:100380002E08A10703182D0AA007A00CA10C320803
:10039000B0003108AF003008AE002F08AD002E08C5
:1003A000A1002D08A000A60B7029A6152008643C0A
:1003B000031C061520083C3C03180615BF01BE01AE
:1003C00020082822A3223F08B8003E08BF01BE0132
:1003D0002822A3223F08B7003E08B60003012118D7
:1003E000093EA118083E2119063EA119023E211A14
:1003F000053E013E2822A3223E08BE012118033EED
:10040000A118073E2119053EA119013E211A023EFD
:10041000A11A053E2822A3223E08BE012119013E51
:10042000A119033E211A063EA11A023E211B053ED8
:100430002822A3223F08BB003E08BE01BF01A11A2B
:10044000013E211B023EA11B053E3F08BA002F2A98
:10045000BF000A303F02031C0800BE0A282A52309F
:10046000442241305B222208053C03183F2A27081A
:100470002A02031C3D2AA3227029A21B412AA3227F
:10048000332A6F304422152983120313B50001303B
:100490007E2235080520BD00B50A3D085F3A0319E4
:1004A000582A3D087C3A031908003D087322492A5E
:1004B000C0307E22492ABC00803E7E223608003AA7
:1004C000031D103E203E73223708303E7322380849
:1004D000303E73222E3073223A08303E73223B089E
:1004E000303E7322080088000000061486140000C5
:1004F0008610000088010610A32208008800000072
:100500008614000086108801A32208008A22013088
:100510007E2208000530CD0000009122CD0B8C2AF0
:1005200008000530CC0000009822CC0B932A08006C
:100530000530CB00FA30CA000000CA0B9C2A00002C
:10054000CB0B9A2A0800831203138B1600000000BD
:0E055000831203138B1AA62A831203130800CA
:02400E00393F38
:00000001FF
