:020000040000FA
:02000000C62810
:08000800AD28820048344534A4
:10001000413452345434203442344534413454341D
:10002000203443344F3455344E3454347C346534A6
:10003000723472346F347234203469346E34203444
:10004000733465347234693461346C345F34203411
:1000500020347434723461346E3473346D346934E2
:100060007434743469346E3467347C34203420340E
:1000700050346C34653461347334653420347734EF
:100080006134693474345F34203420346634653428
:10009000773420347334653463346F346E346434AD
:1000A00073347C34483465346134723474342034AD
:1000B000623465346134743420347234613474349D
:1000C00065343A345F3420342034253464342E349B
:1000D000253466342034623470346D347C346534B5
:1000E000723472346F34723420346434653474344E
:1000F00065346334743469346E3467345F3468341F
:10010000653461347234743420346234653461345B
:1001100074342034703475346C34733465347C3406
:100120002034203463346F346E346E346534633479
:10013000743465346434203474346F345F34203460
:100140002034733465347234693461346C3420344F
:1001500070346F34723474347C34831203130B1193
:10016000831203138B12831203131E0883120313CB
:10017000A700831603131E0883120313A80083121B
:1001800003131F15A30F0900A20A09008316031306
:100190008514860188018312031386018801831662
:1001A000031307138717831203138B018B1783160F
:1001B0000313C8308100831603130E309F0083128F
:1001C000031341309F00902230307D2230307D2259
:1001D00030307D2238307D220C307D2206307D2269
:1001E00001307D2283120313981783160313981688
:1001F0001815831603131930990006304322033073
:10020000B300C0307D221030B500FF307222B50B34
:100210000529C0307D221930B50020307222B50B7F
:100220000D29B30B012901307D228522A201A301F2
:10023000C901FF30C800A222270849020318222959
:100240002708C90048082702031828292708C800DA
:10025000A21F1B2948084902AA00103C03181729AD
:100260000310AA0C0310AA0C2A084902AA00B30121
:10027000B401B317341783160313981C4629FF30B3
:100280009900B40B4629903043224C29B30B3B29EB
:100290008316031398126A29B301B3178316031345
:1002A00098185829B30B4E29173043228522372935
:1002B000A7089900B301B31783160313981866298A
:1002C000B30B5C291730432285223729A8089900EF
:1002D000A2224C29A61536304322A201A301A9145B
:1002E0002A082702031C80292208043C03188429B9
:1002F0002308A5002208A400A301A201A2228D299F
:10030000221B8429A2227029A301A201A222A90BE7
:1003100070296F304322852215290330C60093309F
:10032000C5008730C400B201B101BE013E16031002
:10033000B20DB10DC40DC50DC60D24084602031C37
:10034000AE29031DA72925084502031CAE2925084F
:10035000C502031CC6032408C6023214A222BE0B27
:1003600097293208B0070318310AAF07AF0CB00C59
:100370003008AE0703182F0AAD07AD0CAE0C2E08DF
:10038000A10703182D0AA007A00CA10C3208B00089
:100390003108AF003008AE002F08AD002E08A100D4
:1003A0002D08A000A60B6F29A6152008643C031C8D
:1003B000061520083C3C03180615BF01BE012008A5
:1003C0002722A2223F08B8003E08BF01BE01272213
:1003D000A2223F08B7003E08B60003012118093EDB
:1003E000A118083E2119063EA119023E211A053E18
:1003F000013E2722A2223E08BE012118033EA11879
:10040000073E2119053EA119013E211A023EA11AFB
:10041000053E2722A2223E08BE012119013EA11954
:10042000033E211A063EA11A023E211B053E272249
:10043000A2223F08BB003E08BE01BF01A11A013E37
:10044000211B023EA11B053E3F08BA002E2ABF0019
:100450000A303F02031C0800BE0A272A52304322FA
:1004600041305A222208053C03183E2A27082A0256
:10047000031C3C2AA2226F29A21B402AA222322A54
:100480006F304322152983120313B50001307D22FA
:1004900035080520BD00B50A3D085F3A0319572A03
:1004A0003D087C3A031908003D087222482AC030F2
:1004B0007D22482ABC00803E7D223608003A031D7A
:1004C000103E203E72223708303E72223808303EFD
:1004D00072222E3072223A08303E72223B08303EA1
:1004E000722208008800000006148614000086109E
:1004F000000088010610A22208008800000086146F
:10050000000086108801A2220800892201307D2285
:1005100008000530CD0000009022CD0B8B2A08008A
:100520000530CC0000009722CC0B922A0800053041
:10053000CB00FA30CA000000CA0B9B2A0000CB0B8C
:10054000992A0800831203138B16000000008312FF
:0C05500003138B1AA52A83120313080062
:02400E00393F38
:00000001FF
