:020000040000FA
:02000000C42812
:08000800AD28820048344534A4
:10001000413452345434203442344534413454341D
:10002000203443344F3455344E3454347C346534A6
:10003000723472346F347234203469346E34203444
:10004000733465347234693461346C345F34203411
:1000500020347434723461346E3473346D346934E2
:100060007434743469346E3467347C34203420340E
:1000700050346C34653461347334653420347734EF
:100080006134693474345F34203420346634653428
:10009000773420347334653463346F346E346434AD
:1000A00073347C34483465346134723474342034AD
:1000B000623465346134743420347234613474349D
:1000C00065343A345F3420342034253464342E349B
:1000D000253466342034623470346D347C346534B5
:1000E000723472346F34723420346434653474344E
:1000F00065346334743469346E3467345F3468341F
:10010000653461347234743420346234653461345B
:1001100074342034703475346C34733465347C3406
:100120002034203463346F346E346E346534633479
:10013000743465346434203474346F345F34203460
:100140002034733465347234693461346C3420344F
:1001500070346F34723474347C34D1308100831243
:1001600003130B11831203138B12831203131E0844
:10017000A700831603131E08A800831203131F157C
:10018000A30F0900A20A0900831603138514860130
:100190008801831203138601880183160313071352
:1001A0008717831203138B018B1783160313C03039
:1001B0008100831603130E309F0083120313413016
:1001C0009F00902230307D2230307D2230307D22E1
:1001D00038307D220C307D2206307D2201307D2298
:1001E0008312031398178316031398161815831692
:1001F000031319309900063043220330B300C03096
:100200007D221030B500FF307222B50B0329C030BB
:100210007D221930B50020307222B50B0B29B30BAB
:10022000FF2801307D228D298D298D298D210615EC
:100230008522A201A301FF30C800A222270849029B
:10024000031824292708C9004808270203182A2967
:100250002708C800A21F1D2948084902AA00103C0F
:1002600003181A290310AA0C0310AA0C2A08490221
:10027000AA00B301B401B317341783160313981CF3
:100280004829FF309900B40B4829903043224E2969
:10029000B30B3D298316031398126C29B301B317CE
:1002A0008316031398185A29B30B50291730432289
:1002B00085223929A7089900B301B31783160313C0
:1002C00098186829B30B5E291730432285223929F3
:1002D000A8089900A2224E29A61536304322A91457
:1002E0002A082702031C80292208063C03188429B7
:1002F0002308A5002208A400A301A201A2228D299F
:10030000A21B8429A2227029A301A201A222A90B67
:1003100070296F304322852218290930C600273002
:10032000C500C030C400B201B101BE013E160310C9
:10033000B20DB10DC40DC50DC60D24084602031C37
:10034000AF29031DA72925084502031CAF2925084D
:10035000C502031CC6032408C6023214AF29A22218
:10036000BE0B97293208B0070318310AAF07AF0C4C
:10037000B00C3008AE0703182F0AAD07AD0CAE0C59
:100380002E08A10703182D0AA007A00CA10C320803
:10039000B0003108AF003008AE002F08AD002E08C5
:1003A000A1002D08A000260B6F29A6152008643C8B
:1003B0000318061520083C3C031C0615BF01BE01AE
:1003C00020082822A2223F08B8003E08BF01BE0133
:1003D0002822A2223F08B7003E08B60003012118D8
:1003E000093EA118083E2119063EA119023E211A14
:1003F000053E013E2822A2223E08BE012118033EEE
:10040000A118073E2119053EA119013E211A023EFD
:10041000A11A053E2822A2223E08BE012119013E52
:10042000A119033E211A063EA11A023E211B053ED8
:100430002822A2223F08BA003E08BE01BF01A11A2D
:10044000013E211B023EA11B053E3F08B9002E2A9A
:100450000A3C031C0800BF00BE0A282A523043226F
:1004600041305A222208053C03183E2A27082A0256
:10047000031C3C2AA2226F29A21B402AA222322A54
:100480006F304322182983120313B50001307D22F7
:1004900035080520BD00B50A3D085F3A0319572A03
:1004A0003D087C3A031908003D087222482AC030F2
:1004B0007D22482ABC00803E7D223608003A031D7A
:1004C000103E203E72223708303E72223808303EFD
:1004D00072222E3072223A08303E72223B08303EA1
:1004E000722208008800000006148614000086109E
:1004F000000088010610A22208008800000086146F
:10050000000086108801A2220800892201307D2285
:1005100008000530CD0000009022CD0B8B2A08008A
:100520000530CC0000009722CC0B922A0800053041
:10053000CB00FA30CA000000CA0B9B2A0000CB0B8C
:10054000992A0800831203138B16000000008312FF
:0805500003138B1AA52A080011
:02400E00393F38
:00000001FF
