:020000040000FA
:02000000C7280F
:08000800AD28820048344534A4
:10001000413452345434203442344534413454341D
:10002000203443344F3455344E3454347C346534A6
:10003000723472346F347234203469346E34203444
:10004000733465347234693461346C345F34203411
:1000500020347434723461346E3473346D346934E2
:100060007434743469346E3467347C34203420340E
:1000700050346C34653461347334653420347734EF
:100080006134693474345F34203420346634653428
:10009000773420347334653463346F346E346434AD
:1000A00073347C34483465346134723474342034AD
:1000B000623465346134743420347234613474349D
:1000C00065343A345F3420342034253464342E349B
:1000D0002534663420346234703473347C346534AF
:1000E000723472346F34723420346434653474344E
:1000F00065346334743469346E3467345F3468341F
:10010000653461347234743420346234653461345B
:1001100074342034703475346C34733465347C3406
:100120002034203463346F346E346E346534633479
:10013000743465346434203474346F345F34203460
:100140002034733465347234693461346C3420344F
:1001500070346F34723474347C34D1308100831243
:1001600003130B11831203138B12831203138B12CD
:10017000831203131E08A700831603131E08A8008A
:10018000831203131F15A30F0800A20A0800831689
:1001900003138514860188018312031386018801E5
:1001A0008316031307138717831203138B018B170F
:1001B00083160313C0308100831603130E309F0093
:1001C0008312031341309F00303076223030762284
:1001D00030307622383076220F3076220630762282
:1001E000013076228312031398178316031398168F
:1001F0001815831603131930990006303C22C030BD
:1002000076221030B5000330B300FF306722B50B03
:100210000529C03076221930B50020306722B50B91
:100220000D29B30BFF2801307622A201A301FF3074
:10023000C800822227084902031820292708C9007C
:1002400048082702031826292708C800A21F1929D1
:1002500048084902AA00103C031815290310AA0CEB
:100260000310AA0C2A084902AA00B301B401B3176B
:10027000341783160313981C4429FF309900B40BDC
:10028000442990303C224A29B30B392983160313A1
:1002900098126629B301B3178316031398185529CA
:1002A000B30B4C2917303C223529A7089900B3011C
:1002B000B3178316031398186229B30B5929173003
:1002C0003C223529A808990082224A29A6153630F1
:1002D0003C22A9142A082702031C7A292208063C7A
:1002E00003187E292308A5002208A400A301A20167
:1002F00082228629A21B7E2982226A29A301A201C9
:100300008222A90B6A296F303C2215290930C600C8
:100310002730C500C030C400B201B101BE013E1695
:100320000310B20DB10DC40DC50DC60D2408460253
:10033000031CA829031DA02925084502031CA82980
:100340002508C502031CC6032408C6023214A829C6
:100350008222BE0B90293208B0070318310AAF077A
:10036000AF0CB00C3008AE0703182F0AAD07AD0C68
:10037000AE0C2E08A10703182D0AA007A00CA10C93
:100380003208B0003108AF003008AE002F08AD00D1
:100390002E08A1002D08A000260B6929A61520080B
:1003A000643C0318061520083C3C031C0615BF01DD
:1003B000BE012008212282223F08B8003E08BF016A
:1003C000BE01212282223F08B7003E08B600030189
:1003D0002118093EA118083E2119063EA119023E26
:1003E000211A053E013E212282223E08BE0121182B
:1003F000033EA118073E2119053EA119013E211A0D
:10040000023EA11A053E212282223E08BE01211988
:10041000013EA119033E211A063EA11A023E211BEC
:10042000053E212282223F08BA003E08BE01BF01DC
:10043000A11A013E211B023EA11B053E3F08B90047
:10044000272A0A3C031C0800BF00BE0A212A52309A
:100450003C2240304F222208053C0318372A270847
:100460002A02031C352A82226929A21B392A8222E8
:100470002B2A6F303C221529B50035080520BD0018
:10048000B50A3D085F3A03194C2A3D087C3A031926
:1004900008003D0867223C2AC03076223C2ABC0076
:1004A000813E76223608003A031D103E203E672228
:1004B0003708303E67223808303E67222E306722E8
:1004C0003A08303E67223B08303E67220800880029
:1004D00000000614861400000000000086100000D2
:1004E0000000000088010610822208008800000039
:1004F0008614000000000000861000000000880143
:1005000082220800831203138B16000000000000F3
:02051000852A3A
:02400E00393F38
:00000001FF
