:020000040000FA
:02000000D42802
:08000800AD28820048344534A4
:10001000413452345434203442344534413454341D
:10002000203443344F3455344E3454347C346534A6
:10003000723472346F347234203469346E34203444
:10004000733465347234693461346C345F34203411
:1000500020347434723461346E3473346D346934E2
:100060007434743469346E3467347C34203420340E
:1000700050346C34653461347334653420347734EF
:100080006134693474345F34203420346634653428
:10009000773420347334653463346F346E346434AD
:1000A00073347C34483465346134723474342034AD
:1000B000623465346134743420347234613474349D
:1000C00065343A345F3420342034253464342E349B
:1000D000253466342034623470346D347C346534B5
:1000E000723472346F34723420346434653474344E
:1000F00065346334743469346E3467345F3468341F
:10010000653461347234743420346234653461345B
:1001100074342034703475346C34733465347C3406
:100120002034203463346F346E346E346534633479
:10013000743465346434203474346F345F34203460
:100140002034733465347234693461346C3420344F
:1001500070346F34723474347C34831203130B1193
:10016000831203138B12831203131E0883120313CB
:10017000A700831603131E0883120313A800C720C9
:10018000831203131F15A30F0900A20A090083128B
:10019000031327142208063A031D08002308193AFE
:1001A000031D0800A7170800831603138514860192
:1001B0008801831203138601880183160313071332
:1001C0008717831203138B018B1783160313C83011
:1001D0008100831603130E309F00831203134130F6
:1001E0009F009F2230308C2230308C2230308C2285
:1001F00038308C220C308C2206308C2201308C223C
:100200008312031398178316031398161815831671
:10021000031319309900063052220330B300C03066
:100220008C221030B500FF308122B50B1329C0306D
:100230008C221930B50020308122B50B1B29B30B5D
:100240000F2901308C229422A201A301C901FF30A1
:10025000C800B12227084902031830292708C9001D
:1002600048082702031836292708C800221E292912
:1002700048084902AA00103C031825290310AA0CBB
:100280000310AA0C2A084902AA007929B301B40173
:10029000B317341783160313981C5529FF309900A0
:1002A000B40B5529903052225B29B30B4A2983168F
:1002B000031398127929B301B317831603139818FF
:1002C0006729B30B5D291730522294224629A708CB
:1002D0009900B301B3178316031398187529B30B4C
:1002E0006B291730522294224629A8089900B1227E
:1002F0005B29A61536305222A201A301A9142A08AF
:100300002702031C8F292208043C03189329230881
:10031000A5002208A400A301A201B1229C29221B4E
:100320009329B1227F29A301A201B122A90B7F2920
:100330006F305222942223290330C6009330C50027
:100340008730C400B201B101BE013E160310B20DE8
:10035000B10DC40DC50DC60D24084602031CBD29F0
:10036000031DB62925084502031CBD292508C50221
:10037000031CC6032408C6023214B122BE0BA629F0
:100380003208B0070318310AAF07AF0CB00C3008C1
:10039000AE0703182F0AAD07AD0CAE0C2E08A1074F
:1003A00003182D0AA007A00CA10C3208B0003108D8
:1003B000AF003008AE002F08AD002E08A1002D08B8
:1003C000A000A60B7E29A6152008643C031C061578
:1003D00020083C3C03180615BF01BE012008362248
:1003E000B1223F08B8003E08BF01BE013622B1224B
:1003F0003F08B7003E08B60003012118093EA118C6
:10040000083E2119063EA119023E211A053E013E71
:100410003622B1223E08BE012118033EA118073E34
:100420002119053EA119013E211A023EA11A053EDD
:100430003622B1223E08BE012119013EA119033E18
:10044000211A063EA11A023E211B053E3622B12288
:100450003F08BB003E08BE01BF01A11A013E211B9F
:10046000023EA11B053E3F08BA003D2ABF000A30EC
:100470003F02031C0800BE0A362A52305222413085
:1004800069222208053C03184D2A27082A02031C6A
:100490004B2AB1227E29A21B4F2AB122412A6F305A
:1004A0005222232983120313B50001308C22350810
:1004B0000520BD00B50A3D085F3A0319662A3D08CC
:1004C0007C3A031908003D088122572AC0308C224B
:1004D000572ABC00803E8C223608003A031D103E8D
:1004E000203E81223708303E81223808303E81226A
:1004F0002E3081223A08303E81223B08303E812254
:100500000800880000000614861400008610000011
:1005100088010610B122080088000000861400003F
:1005200086108801B1220800982201308C22080030
:100530000530CD0000009F22CD0B9A2A080005301F
:10054000CC000000A622CC0BA12A08000530CB006D
:10055000FA30CA000000CA0BAA2A0000CB0BA82A56
:100560000800831203138B1600000000831203138C
:100570008B1AB42A831203130800831203138615FF
:02058000C02A8F
:02400E00393F38
:00000001FF
