:020000040000FA
:02000000C42812
:08000800AD28820048344534A4
:10001000413452345434203442344534413454341D
:10002000203443344F3455344E3454347C346534A6
:10003000723472346F347234203469346E34203444
:10004000733465347234693461346C345F34203411
:1000500020347434723461346E3473346D346934E2
:100060007434743469346E3467347C34203420340E
:1000700050346C34653461347334653420347734EF
:100080006134693474345F34203420346634653428
:10009000773420347334653463346F346E346434AD
:1000A00073347C34483465346134723474342034AD
:1000B000623465346134743420347234613474349D
:1000C00065343A345F3420342034253464342E349B
:1000D0002534663420346234703473347C346534AF
:1000E000723472346F34723420346434653474344E
:1000F00065346334743469346E3467345F3468341F
:10010000653461347234743420346234653461345B
:1001100074342034703475346C34733465347C3406
:100120002034203463346F346E346E346534633479
:10013000743465346434203474346F345F34203460
:100140002034733465347234693461346C3420344F
:1001500070346F34723474347C34D1308100831243
:1001600003130B11831203138B12831203131E0844
:10017000A700831603131E08A800831203131F157C
:10018000A30F0900A20A0900831603138514860130
:100190008801831203138601880183160313071352
:1001A0008717831203138B018B1783160313C03039
:1001B0008100831603130E309F0083120313413016
:1001C0009F008C22303079223030792230307922F1
:1001D000383079220C3079220630792201307922A8
:1001E0008312031398178316031398161815831692
:1001F00003131930990006303F220330B300C0309A
:1002000079221030B500FF306E22B50B0329C030C3
:1002100079221930B50020306E22B50B0B29B30BB3
:10022000FF28013079222A2A8122A201A301FF306E
:10023000C8009E2227084902031820292708C90060
:1002400048082702031826292708C800A21F1929D1
:1002500048084902AA00103C031816290310AA0CEA
:100260000310AA0C2A084902AA00B301B401B3176B
:10027000341783160313981C4429FF309900B40BDC
:10028000442990303F224A29B30B3929831603139E
:1002900098126829B301B3178316031398185629C7
:1002A000B30B4C2917303F2281223529A70899002A
:1002B000B301B3178316031398186429B30B5A2993
:1002C00017303F2281223529A80899009E224A2909
:1002D000A61536303F22A9142A082702031C7C29C0
:1002E0002208063C031880292308A5002208A40040
:1002F000A301A2019E228929A21B80299E226C298A
:10030000A301A2019E22A90B6C296F303F228122FA
:1003100014290930C6002730C500C030C400B2011E
:10032000B101BE013E160310B20DB10DC40DC50DD5
:10033000C60D24084602031CAB29031DA32925086A
:100340004502031CAB292508C502031CC60324086B
:10035000C6023214AB299E22BE0B93293208B00785
:100360000318310AAF07AF0CB00C3008AE07031802
:100370002F0AAD07AD0CAE0C2E08A10703182D0AED
:10038000A007A00CA10C3208B0003108AF00300863
:10039000AE002F08AD002E08A1002D08A000260BEE
:1003A0006B29A6152008643C0318061520083C3C60
:1003B000031C0615BF01BE01200824229E223F080F
:1003C000B8003E08BF01BE0124229E223F08B700AC
:1003D0003E08B60003012118093EA118083E211964
:1003E000063EA119023E211A053E013E24229E220C
:1003F0003E08BE012118033EA118073E2119053E03
:10040000A119013E211A023EA11A053E24229E2274
:100410003E08BE012119013EA119033E211A063EE4
:10042000A11A023E211B053E24229E223F08BA004B
:100430003E08BE01BF01A11A013E211B023EA11BC5
:10044000053E3F08B9002A2A0A3C031C0800BF00E9
:10045000BE0A242A52303F22413056222208053C4F
:1004600003183A2A27082A02031C382A9E226B29DD
:10047000A21B3C2A9E222E2A6F303F22142983126F
:100480000313B5000130792235080520BD00B50AF7
:100490003D085F3A0319532A3D087C3A03190800C6
:1004A0003D086E22442AC0307922442ABC00803E96
:1004B00079223608003A031D103E203E6E2237088E
:1004C000303E6E223808303E6E222E306E223A08C0
:1004D000303E6E223B08303E6E220800880000004D
:1004E00006148614000086100000880106109E2263
:1004F00008008800000086140000861088019E22F3
:10050000080085220130792208000530CD00000066
:100510008C22CD0B872A08000530CC0000009322E6
:10052000CC0B8E2A08000530CB00FA30CA00000040
:10053000CA0B972A0000CB0B952A080083120313DD
:100540008B1600000000831203138B1AA12A0800E7
:02400E00393F38
:00000001FF
